:10000300759201E4F50BF50AF509F508E47F507ED6
:10001300C3FDFCAB0BAA0AA909A808C3120105502A
:1000230017E50B2401F50BE4350AF50AE43509F568
:1000330009E43508F50880D4C290C2A4D2A5D2A69B
:10004300D2A7E4F50BF50AF509F508E47F507EC362
:10005300FDFCAB0BAA0AA909A808C3120105501796
:10006300E50B2401F50BE4350AF50AE43509F50936
:10007300E43508F50880D4D290C2A4C2A5D2A6D292
:10008300A7E4F50BF50AF509F508E47F507EC3FDF7
:10009300FCAB0BAA0AA909A808C31201055017E56E
:1000A3000B2401F50BE4350AF50AE43509F509E4F7
:1000B3003508F50880D4C290C2A4C2A5C2A6D2A7AF
:1000C300E4F50BF50AF509F508E47F507EC3FDFC62
:1000D300AB0BAA0AA909A808C31201055017E50B1F
:1000E3002401F50BE4350AF50AE43509F509E4358D
:1000F30008F50880D4D290C2A4C2A5C2A6C2A702A2
:020103000006F4
:03000000020116E4
:0C011600787FE4F6D8FD75810B02000331
:10010500EB9FF5F0EA9E42F0E99D42F0E89C45F050
:0101150022C7
:00000001FF
