:0D01CA000B08039F250D9949411F0109FFF6
:1001A300EF24FE601014601314601624037017ED1F
:1001B30024FF92A022ED24FF92A122ED24FF92A21C
:0701C30022ED24FF92A322AC
:080153007FFA7E007D007C00B4
:08015B008F188E178D168C150C
:10016300E4F51CF51BF51AF519E47F64FEFDFCAB01
:1001730018AA17A916A8151200F3AB1CAA1BA91AD3
:10018300A819C31201425017E51C2401F51CE435DC
:0F0193001BF51BE4351AF51AE43519F51980CA66
:0101A200223A
:10008F00E4F513751401759201FD7F011201A32090
:10009F00B4270514E514C39405500EE51414FF7D21
:1000AF00011201A31DAF14800D751401E4FD7F0132
:1000BF001201A30D7F041201A320B2D3E4F5137430
:1000CF00082513F8E6F580C290120153D290120161
:1000DF00530513E513D3940940E574082513F8E687
:0400EF00F58080AB6D
:03000000020003F8
:0C000300787FE4F6D8FD75811C02004AED
:1000F300E88FF0A4CC8BF0A42CFCE98EF0A42CFCAC
:100103008AF0EDA42CFCEA8EF0A4CDA8F08BF0A429
:100113002DCC3825F0FDE98FF0A42CCD35F0FCEB88
:100123008EF0A4FEA9F0EB8FF0A4CFC5F02ECD394D
:0F013300FEE43CFCEAA42DCE35F0FDE43CFC22BA
:10014200EB9FF5F0EA9E42F0E99D42F0E89C45F013
:01015200228A
:10000F0002008FE493A3F8E493A34003F68001F278
:10001F0008DFF48029E493A3F85407240CC8C333F2
:10002F00C4540F4420C8834004F456800146F6DFC1
:10003F00E4800B01020408102040809001CAE47E86
:10004F00019360BCA3FF543F30E509541FFEE493B6
:10005F00A360010ECF54C025E060A840B8E493A37D
:10006F00FAE493A3F8E493A3C8C582C8CAC583CAA8
:10007F00F0A3C8C582C8CAC583CADFE9DEE780BE60
:0101D7000027
:00000001FF
